{
  "contractName": "DEMO_ICO",
  "abi": [
    {
      "constant": true,
      "inputs": [],
      "name": "pricePreICO",
      "outputs": [
        {
          "name": "",
          "type": "uint256"
        }
      ],
      "payable": false,
      "stateMutability": "view",
      "type": "function",
      "signature": "0x08ce2136"
    },
    {
      "constant": true,
      "inputs": [
        {
          "name": "_operator",
          "type": "address"
        },
        {
          "name": "_role",
          "type": "string"
        }
      ],
      "name": "checkRole",
      "outputs": [],
      "payable": false,
      "stateMutability": "view",
      "type": "function",
      "signature": "0x0988ca8c"
    },
    {
      "constant": true,
      "inputs": [],
      "name": "ROLE_WHITELISTED",
      "outputs": [
        {
          "name": "",
          "type": "string"
        }
      ],
      "payable": false,
      "stateMutability": "view",
      "type": "function",
      "signature": "0x18b919e9"
    },
    {
      "constant": true,
      "inputs": [
        {
          "name": "_operator",
          "type": "address"
        },
        {
          "name": "_role",
          "type": "string"
        }
      ],
      "name": "hasRole",
      "outputs": [
        {
          "name": "",
          "type": "bool"
        }
      ],
      "payable": false,
      "stateMutability": "view",
      "type": "function",
      "signature": "0x217fe6c6"
    },
    {
      "constant": false,
      "inputs": [
        {
          "name": "_operators",
          "type": "address[]"
        }
      ],
      "name": "removeAddressesFromWhitelist",
      "outputs": [],
      "payable": false,
      "stateMutability": "nonpayable",
      "type": "function",
      "signature": "0x24953eaa"
    },
    {
      "constant": false,
      "inputs": [
        {
          "name": "_operator",
          "type": "address"
        }
      ],
      "name": "removeAddressFromWhitelist",
      "outputs": [],
      "payable": false,
      "stateMutability": "nonpayable",
      "type": "function",
      "signature": "0x286dd3f5"
    },
    {
      "constant": true,
      "inputs": [],
      "name": "rate",
      "outputs": [
        {
          "name": "",
          "type": "uint256"
        }
      ],
      "payable": false,
      "stateMutability": "view",
      "type": "function",
      "signature": "0x2c4e722e"
    },
    {
      "constant": true,
      "inputs": [],
      "name": "weiRaised",
      "outputs": [
        {
          "name": "",
          "type": "uint256"
        }
      ],
      "payable": false,
      "stateMutability": "view",
      "type": "function",
      "signature": "0x4042b66f"
    },
    {
      "constant": true,
      "inputs": [],
      "name": "wallet",
      "outputs": [
        {
          "name": "",
          "type": "address"
        }
      ],
      "payable": false,
      "stateMutability": "view",
      "type": "function",
      "signature": "0x521eb273"
    },
    {
      "constant": false,
      "inputs": [],
      "name": "renounceOwnership",
      "outputs": [],
      "payable": false,
      "stateMutability": "nonpayable",
      "type": "function",
      "signature": "0x715018a6"
    },
    {
      "constant": false,
      "inputs": [
        {
          "name": "_operator",
          "type": "address"
        }
      ],
      "name": "addAddressToWhitelist",
      "outputs": [],
      "payable": false,
      "stateMutability": "nonpayable",
      "type": "function",
      "signature": "0x7b9417c8"
    },
    {
      "constant": true,
      "inputs": [],
      "name": "owner",
      "outputs": [
        {
          "name": "",
          "type": "address"
        }
      ],
      "payable": false,
      "stateMutability": "view",
      "type": "function",
      "signature": "0x8da5cb5b"
    },
    {
      "constant": true,
      "inputs": [
        {
          "name": "_operator",
          "type": "address"
        }
      ],
      "name": "whitelist",
      "outputs": [
        {
          "name": "",
          "type": "bool"
        }
      ],
      "payable": false,
      "stateMutability": "view",
      "type": "function",
      "signature": "0x9b19251a"
    },
    {
      "constant": true,
      "inputs": [],
      "name": "priceICO",
      "outputs": [
        {
          "name": "",
          "type": "uint256"
        }
      ],
      "payable": false,
      "stateMutability": "view",
      "type": "function",
      "signature": "0xd63e7cc1"
    },
    {
      "constant": false,
      "inputs": [
        {
          "name": "_operators",
          "type": "address[]"
        }
      ],
      "name": "addAddressesToWhitelist",
      "outputs": [],
      "payable": false,
      "stateMutability": "nonpayable",
      "type": "function",
      "signature": "0xe2ec6ec3"
    },
    {
      "constant": false,
      "inputs": [
        {
          "name": "_beneficiary",
          "type": "address"
        }
      ],
      "name": "buyTokens",
      "outputs": [],
      "payable": true,
      "stateMutability": "payable",
      "type": "function",
      "signature": "0xec8ac4d8"
    },
    {
      "constant": false,
      "inputs": [
        {
          "name": "_newOwner",
          "type": "address"
        }
      ],
      "name": "transferOwnership",
      "outputs": [],
      "payable": false,
      "stateMutability": "nonpayable",
      "type": "function",
      "signature": "0xf2fde38b"
    },
    {
      "constant": true,
      "inputs": [],
      "name": "token",
      "outputs": [
        {
          "name": "",
          "type": "address"
        }
      ],
      "payable": false,
      "stateMutability": "view",
      "type": "function",
      "signature": "0xfc0c546a"
    },
    {
      "inputs": [
        {
          "name": "_wallet",
          "type": "address"
        },
        {
          "name": "_token",
          "type": "address"
        },
        {
          "name": "_pricePreICO",
          "type": "uint256"
        },
        {
          "name": "_priceICO",
          "type": "uint256"
        }
      ],
      "payable": false,
      "stateMutability": "nonpayable",
      "type": "constructor",
      "signature": "constructor"
    },
    {
      "payable": true,
      "stateMutability": "payable",
      "type": "fallback"
    },
    {
      "anonymous": false,
      "inputs": [
        {
          "indexed": true,
          "name": "purchaser",
          "type": "address"
        },
        {
          "indexed": true,
          "name": "beneficiary",
          "type": "address"
        },
        {
          "indexed": false,
          "name": "value",
          "type": "uint256"
        },
        {
          "indexed": false,
          "name": "amount",
          "type": "uint256"
        }
      ],
      "name": "TokenPurchase",
      "type": "event",
      "signature": "0x623b3804fa71d67900d064613da8f94b9617215ee90799290593e1745087ad18"
    },
    {
      "anonymous": false,
      "inputs": [
        {
          "indexed": true,
          "name": "operator",
          "type": "address"
        },
        {
          "indexed": false,
          "name": "role",
          "type": "string"
        }
      ],
      "name": "RoleAdded",
      "type": "event",
      "signature": "0xbfec83d64eaa953f2708271a023ab9ee82057f8f3578d548c1a4ba0b5b700489"
    },
    {
      "anonymous": false,
      "inputs": [
        {
          "indexed": true,
          "name": "operator",
          "type": "address"
        },
        {
          "indexed": false,
          "name": "role",
          "type": "string"
        }
      ],
      "name": "RoleRemoved",
      "type": "event",
      "signature": "0xd211483f91fc6eff862467f8de606587a30c8fc9981056f051b897a418df803a"
    },
    {
      "anonymous": false,
      "inputs": [
        {
          "indexed": true,
          "name": "previousOwner",
          "type": "address"
        }
      ],
      "name": "OwnershipRenounced",
      "type": "event",
      "signature": "0xf8df31144d9c2f0f6b59d69b8b98abd5459d07f2742c4df920b25aae33c64820"
    },
    {
      "anonymous": false,
      "inputs": [
        {
          "indexed": true,
          "name": "previousOwner",
          "type": "address"
        },
        {
          "indexed": true,
          "name": "newOwner",
          "type": "address"
        }
      ],
      "name": "OwnershipTransferred",
      "type": "event",
      "signature": "0x8be0079c531659141344cd1fd0a4f28419497f9722a3daafe3b4186f6b6457e0"
    },
    {
      "constant": false,
      "inputs": [],
      "name": "startPreIco",
      "outputs": [],
      "payable": false,
      "stateMutability": "nonpayable",
      "type": "function",
      "signature": "0xc06d1272"
    },
    {
      "constant": false,
      "inputs": [],
      "name": "startIco",
      "outputs": [],
      "payable": false,
      "stateMutability": "nonpayable",
      "type": "function",
      "signature": "0x89311e6f"
    },
    {
      "constant": false,
      "inputs": [],
      "name": "finalizeIco",
      "outputs": [],
      "payable": false,
      "stateMutability": "nonpayable",
      "type": "function",
      "signature": "0x903a3ef6"
    },
    {
      "constant": true,
      "inputs": [],
      "name": "isOpen",
      "outputs": [
        {
          "name": "",
          "type": "bool"
        }
      ],
      "payable": false,
      "stateMutability": "view",
      "type": "function",
      "signature": "0x47535d7b"
    }
  ],
  "bytecode": "0x608060405234801561001057600080fd5b50604051608080611b0e8339810180604052810190808051906020019092919080519060200190929190805190602001909291908051906020019092919050505060018484336000806101000a81548173ffffffffffffffffffffffffffffffffffffffff021916908373ffffffffffffffffffffffffffffffffffffffff1602179055506000831115156100a457600080fd5b600073ffffffffffffffffffffffffffffffffffffffff168273ffffffffffffffffffffffffffffffffffffffff16141515156100e057600080fd5b600073ffffffffffffffffffffffffffffffffffffffff168173ffffffffffffffffffffffffffffffffffffffff161415151561011c57600080fd5b8260048190555081600360006101000a81548173ffffffffffffffffffffffffffffffffffffffff021916908373ffffffffffffffffffffffffffffffffffffffff16021790555080600260006101000a81548173ffffffffffffffffffffffffffffffffffffffff021916908373ffffffffffffffffffffffffffffffffffffffff16021790555050505081600781905550806008819055506000600660006101000a81548160ff021916908360038111156101d557fe5b021790555050505050611921806101ed6000396000f300608060405260043610610128576000357c0100000000000000000000000000000000000000000000000000000000900463ffffffff16806308ce2136146101335780630988ca8c1461015e57806318b919e9146101e7578063217fe6c61461027757806324953eaa14610318578063286dd3f51461037e5780632c4e722e146103c15780634042b66f146103ec57806347535d7b14610417578063521eb27314610446578063715018a61461049d5780637b9417c8146104b457806389311e6f146104f75780638da5cb5b1461050e578063903a3ef6146105655780639b19251a1461057c578063c06d1272146105d7578063d63e7cc1146105ee578063e2ec6ec314610619578063ec8ac4d81461067f578063f2fde38b146106b5578063fc0c546a146106f8575b6101313361074f565b005b34801561013f57600080fd5b5061014861081d565b6040518082815260200191505060405180910390f35b34801561016a57600080fd5b506101e5600480360381019080803573ffffffffffffffffffffffffffffffffffffffff169060200190929190803590602001908201803590602001908080601f0160208091040260200160405190810160405280939291908181526020018383808284378201915050505050509192919290505050610823565b005b3480156101f357600080fd5b506101fc6108a4565b6040518080602001828103825283818151815260200191508051906020019080838360005b8381101561023c578082015181840152602081019050610221565b50505050905090810190601f1680156102695780820380516001836020036101000a031916815260200191505b509250505060405180910390f35b34801561028357600080fd5b506102fe600480360381019080803573ffffffffffffffffffffffffffffffffffffffff169060200190929190803590602001908201803590602001908080601f01602080910402602001604051908101604052809392919081815260200183838082843782019150505050505091929192905050506108dd565b604051808215151515815260200191505060405180910390f35b34801561032457600080fd5b5061037c60048036038101908080359060200190820180359060200190808060200260200160405190810160405280939291908181526020018383602002808284378201915050505050509192919290505050610964565b005b34801561038a57600080fd5b506103bf600480360381019080803573ffffffffffffffffffffffffffffffffffffffff169060200190929190505050610a00565b005b3480156103cd57600080fd5b506103d6610a9d565b6040518082815260200191505060405180910390f35b3480156103f857600080fd5b50610401610aa3565b6040518082815260200191505060405180910390f35b34801561042357600080fd5b5061042c610aa9565b604051808215151515815260200191505060405180910390f35b34801561045257600080fd5b5061045b610b09565b604051808273ffffffffffffffffffffffffffffffffffffffff1673ffffffffffffffffffffffffffffffffffffffff16815260200191505060405180910390f35b3480156104a957600080fd5b506104b2610b2f565b005b3480156104c057600080fd5b506104f5600480360381019080803573ffffffffffffffffffffffffffffffffffffffff169060200190929190505050610c31565b005b34801561050357600080fd5b5061050c610cce565b005b34801561051a57600080fd5b50610523610d83565b604051808273ffffffffffffffffffffffffffffffffffffffff1673ffffffffffffffffffffffffffffffffffffffff16815260200191505060405180910390f35b34801561057157600080fd5b5061057a610da8565b005b34801561058857600080fd5b506105bd600480360381019080803573ffffffffffffffffffffffffffffffffffffffff169060200190929190505050610e5d565b604051808215151515815260200191505060405180910390f35b3480156105e357600080fd5b506105ec610ea5565b005b3480156105fa57600080fd5b50610603610f5a565b6040518082815260200191505060405180910390f35b34801561062557600080fd5b5061067d60048036038101908080359060200190820180359060200190808060200260200160405190810160405280939291908181526020018383602002808284378201915050505050509192919290505050610f60565b005b6106b3600480360381019080803573ffffffffffffffffffffffffffffffffffffffff16906020019092919050505061074f565b005b3480156106c157600080fd5b506106f6600480360381019080803573ffffffffffffffffffffffffffffffffffffffff169060200190929190505050610ffc565b005b34801561070457600080fd5b5061070d611063565b604051808273ffffffffffffffffffffffffffffffffffffffff1673ffffffffffffffffffffffffffffffffffffffff16815260200191505060405180910390f35b60008034915061075f8383611089565b61076882611113565b905061077f8260055461117c90919063ffffffff16565b60058190555061078f8382611198565b8273ffffffffffffffffffffffffffffffffffffffff163373ffffffffffffffffffffffffffffffffffffffff167f623b3804fa71d67900d064613da8f94b9617215ee90799290593e1745087ad188484604051808381526020018281526020019250505060405180910390a361080683836111a6565b61080e6111aa565b6108188383611215565b505050565b60075481565b6108a0826001836040518082805190602001908083835b60208310151561085f578051825260208201915060208101905060208303925061083a565b6001836020036101000a038019825116818451168082178552505050505050905001915050908152602001604051809103902061121990919063ffffffff16565b5050565b6040805190810160405280600981526020017f77686974656c697374000000000000000000000000000000000000000000000081525081565b600061095c836001846040518082805190602001908083835b60208310151561091b57805182526020820191506020810190506020830392506108f6565b6001836020036101000a038019825116818451168082178552505050505050905001915050908152602001604051809103902061123290919063ffffffff16565b905092915050565b60008060009054906101000a900473ffffffffffffffffffffffffffffffffffffffff1673ffffffffffffffffffffffffffffffffffffffff163373ffffffffffffffffffffffffffffffffffffffff161415156109c157600080fd5b600090505b81518110156109fc576109ef82828151811015156109e057fe5b90602001906020020151610a00565b80806001019150506109c6565b5050565b6000809054906101000a900473ffffffffffffffffffffffffffffffffffffffff1673ffffffffffffffffffffffffffffffffffffffff163373ffffffffffffffffffffffffffffffffffffffff16141515610a5b57600080fd5b610a9a816040805190810160405280600981526020017f77686974656c697374000000000000000000000000000000000000000000000081525061128b565b50565b60045481565b60055481565b600060016003811115610ab857fe5b600660009054906101000a900460ff166003811115610ad357fe5b1480610b04575060026003811115610ae757fe5b600660009054906101000a900460ff166003811115610b0257fe5b145b905090565b600360009054906101000a900473ffffffffffffffffffffffffffffffffffffffff1681565b6000809054906101000a900473ffffffffffffffffffffffffffffffffffffffff1673ffffffffffffffffffffffffffffffffffffffff163373ffffffffffffffffffffffffffffffffffffffff16141515610b8a57600080fd5b6000809054906101000a900473ffffffffffffffffffffffffffffffffffffffff1673ffffffffffffffffffffffffffffffffffffffff167ff8df31144d9c2f0f6b59d69b8b98abd5459d07f2742c4df920b25aae33c6482060405160405180910390a260008060006101000a81548173ffffffffffffffffffffffffffffffffffffffff021916908373ffffffffffffffffffffffffffffffffffffffff160217905550565b6000809054906101000a900473ffffffffffffffffffffffffffffffffffffffff1673ffffffffffffffffffffffffffffffffffffffff163373ffffffffffffffffffffffffffffffffffffffff16141515610c8c57600080fd5b610ccb816040805190810160405280600981526020017f77686974656c69737400000000000000000000000000000000000000000000008152506113bf565b50565b6000809054906101000a900473ffffffffffffffffffffffffffffffffffffffff1673ffffffffffffffffffffffffffffffffffffffff163373ffffffffffffffffffffffffffffffffffffffff16141515610d2957600080fd5b600380811115610d3557fe5b600660009054906101000a900460ff166003811115610d5057fe5b14151515610d5d57600080fd5b6002600660006101000a81548160ff02191690836003811115610d7c57fe5b0217905550565b6000809054906101000a900473ffffffffffffffffffffffffffffffffffffffff1681565b6000809054906101000a900473ffffffffffffffffffffffffffffffffffffffff1673ffffffffffffffffffffffffffffffffffffffff163373ffffffffffffffffffffffffffffffffffffffff16141515610e0357600080fd5b600380811115610e0f57fe5b600660009054906101000a900460ff166003811115610e2a57fe5b14151515610e3757600080fd5b6003600660006101000a81548160ff02191690836003811115610e5657fe5b0217905550565b6000610e9e826040805190810160405280600981526020017f77686974656c69737400000000000000000000000000000000000000000000008152506108dd565b9050919050565b6000809054906101000a900473ffffffffffffffffffffffffffffffffffffffff1673ffffffffffffffffffffffffffffffffffffffff163373ffffffffffffffffffffffffffffffffffffffff16141515610f0057600080fd5b60006003811115610f0d57fe5b600660009054906101000a900460ff166003811115610f2857fe5b141515610f3457600080fd5b6001600660006101000a81548160ff02191690836003811115610f5357fe5b0217905550565b60085481565b60008060009054906101000a900473ffffffffffffffffffffffffffffffffffffffff1673ffffffffffffffffffffffffffffffffffffffff163373ffffffffffffffffffffffffffffffffffffffff16141515610fbd57600080fd5b600090505b8151811015610ff857610feb8282815181101515610fdc57fe5b90602001906020020151610c31565b8080600101915050610fc2565b5050565b6000809054906101000a900473ffffffffffffffffffffffffffffffffffffffff1673ffffffffffffffffffffffffffffffffffffffff163373ffffffffffffffffffffffffffffffffffffffff1614151561105757600080fd5b611060816114f3565b50565b600260009054906101000a900473ffffffffffffffffffffffffffffffffffffffff1681565b611091610aa9565b1515611105576040517f08c379a00000000000000000000000000000000000000000000000000000000081526004018080602001828103825260138152602001807f5468652049434f206973206e6f74206f70656e0000000000000000000000000081525060200191505060405180910390fd5b61110f82826115ed565b5050565b60006001600381111561112257fe5b600660009054906101000a900460ff16600381111561113d57fe5b141561115f576111586007548361163c90919063ffffffff16565b9050611177565b6111746008548361163c90919063ffffffff16565b90505b919050565b6000818301905082811015151561118f57fe5b80905092915050565b6111a28282611652565b5050565b5050565b600360009054906101000a900473ffffffffffffffffffffffffffffffffffffffff1673ffffffffffffffffffffffffffffffffffffffff166108fc349081150290604051600060405180830381858888f19350505050158015611212573d6000803e3d6000fd5b50565b5050565b6112238282611232565b151561122e57600080fd5b5050565b60008260000160008373ffffffffffffffffffffffffffffffffffffffff1673ffffffffffffffffffffffffffffffffffffffff16815260200190815260200160002060009054906101000a900460ff16905092915050565b611308826001836040518082805190602001908083835b6020831015156112c757805182526020820191506020810190506020830392506112a2565b6001836020036101000a03801982511681845116808217855250505050505090500191505090815260200160405180910390206116c690919063ffffffff16565b8173ffffffffffffffffffffffffffffffffffffffff167fd211483f91fc6eff862467f8de606587a30c8fc9981056f051b897a418df803a826040518080602001828103825283818151815260200191508051906020019080838360005b83811015611381578082015181840152602081019050611366565b50505050905090810190601f1680156113ae5780820380516001836020036101000a031916815260200191505b509250505060405180910390a25050565b61143c826001836040518082805190602001908083835b6020831015156113fb57805182526020820191506020810190506020830392506113d6565b6001836020036101000a038019825116818451168082178552505050505050905001915050908152602001604051809103902061172490919063ffffffff16565b8173ffffffffffffffffffffffffffffffffffffffff167fbfec83d64eaa953f2708271a023ab9ee82057f8f3578d548c1a4ba0b5b700489826040518080602001828103825283818151815260200191508051906020019080838360005b838110156114b557808201518184015260208101905061149a565b50505050905090810190601f1680156114e25780820380516001836020036101000a031916815260200191505b509250505060405180910390a25050565b600073ffffffffffffffffffffffffffffffffffffffff168173ffffffffffffffffffffffffffffffffffffffff161415151561152f57600080fd5b8073ffffffffffffffffffffffffffffffffffffffff166000809054906101000a900473ffffffffffffffffffffffffffffffffffffffff1673ffffffffffffffffffffffffffffffffffffffff167f8be0079c531659141344cd1fd0a4f28419497f9722a3daafe3b4186f6b6457e060405160405180910390a3806000806101000a81548173ffffffffffffffffffffffffffffffffffffffff021916908373ffffffffffffffffffffffffffffffffffffffff16021790555050565b8161162d816040805190810160405280600981526020017f77686974656c6973740000000000000000000000000000000000000000000000815250610823565b6116378383611782565b505050565b6000818381151561164957fe5b04905092915050565b6116c26000809054906101000a900473ffffffffffffffffffffffffffffffffffffffff168383600260009054906101000a900473ffffffffffffffffffffffffffffffffffffffff1673ffffffffffffffffffffffffffffffffffffffff166117d2909392919063ffffffff16565b5050565b60008260000160008373ffffffffffffffffffffffffffffffffffffffff1673ffffffffffffffffffffffffffffffffffffffff16815260200190815260200160002060006101000a81548160ff0219169083151502179055505050565b60018260000160008373ffffffffffffffffffffffffffffffffffffffff1673ffffffffffffffffffffffffffffffffffffffff16815260200190815260200160002060006101000a81548160ff0219169083151502179055505050565b600073ffffffffffffffffffffffffffffffffffffffff168273ffffffffffffffffffffffffffffffffffffffff16141515156117be57600080fd5b600081141515156117ce57600080fd5b5050565b8373ffffffffffffffffffffffffffffffffffffffff166323b872dd8484846040518463ffffffff167c0100000000000000000000000000000000000000000000000000000000028152600401808473ffffffffffffffffffffffffffffffffffffffff1673ffffffffffffffffffffffffffffffffffffffff1681526020018373ffffffffffffffffffffffffffffffffffffffff1673ffffffffffffffffffffffffffffffffffffffff1681526020018281526020019350505050602060405180830381600087803b1580156118a957600080fd5b505af11580156118bd573d6000803e3d6000fd5b505050506040513d60208110156118d357600080fd5b810190808051906020019092919050505015156118ef57600080fd5b505050505600a165627a7a7230582044f335938851bf42d8bb062a7631359dd1087ee5442ad6dd2ef7cebdc2cfd4b80029",
  "source": "pragma solidity ^0.4.24;\n\nimport \"zeppelin-solidity/contracts/crowdsale/validation/WhitelistedCrowdsale.sol\";\n\ncontract DEMO_ICO is WhitelistedCrowdsale{\n\n    enum Stages {\n        none,\n        preICO,\n        icoStart,\n        icoEnd\n    }\n\n    Stages currentStage;\n    uint256 public pricePreICO;\n    uint256 public priceICO;\n\n    constructor(address _wallet, ERC20 _token, uint256 _pricePreICO, uint256 _priceICO) public\n    Crowdsale(1, _wallet, _token)\n    {\n        pricePreICO = _pricePreICO;\n        priceICO = _priceICO;\n        currentStage = Stages.none;\n    }\n\n    /**\n     * @dev startIco starts the public ICO\n     **/\n    function startPreIco() public onlyOwner {\n        require(currentStage == Stages.none);\n        currentStage = Stages.preICO;\n    }\n\n    /**\n     * @dev startIco starts the public ICO\n     **/\n    function startIco() public onlyOwner {\n        require(currentStage != Stages.icoEnd);\n        currentStage = Stages.icoStart;\n    }\n\n    /**\n     * @dev finalizeIco closes down the ICO\n     **/\n    function finalizeIco() public onlyOwner {\n        require(currentStage != Stages.icoEnd);\n        currentStage = Stages.icoEnd;\n    }\n\n    function isOpen() public view returns (bool){\n        return currentStage == Stages.preICO || currentStage == Stages.icoStart;\n    }\n\n    function _preValidatePurchase(\n        address _beneficiary,\n        uint256 _weiAmount\n    )\n    internal\n    {\n        require(isOpen(), \"The ICO is not open\");\n        super._preValidatePurchase(_beneficiary, _weiAmount);\n    }\n\n    function _getTokenAmount(uint256 _weiAmount)\n    internal view returns (uint256)\n    {\n        if(currentStage == Stages.preICO){\n            return _weiAmount.div(pricePreICO);\n        }else{\n            return _weiAmount.div(priceICO);\n        }\n    }\n\n    function _deliverTokens(\n        address _beneficiary,\n        uint256 _tokenAmount\n    )\n    internal\n    {\n        token.safeTransferFrom(owner, _beneficiary, _tokenAmount);\n    }\n}",
  "sourcePath": "/home/alejandro/workspace/rsk/rsktest/contracts/crowdsale/erc223/DEMO_ICO.sol",
  "compiler": {
    "name": "solc",
    "version": "0.4.24+commit.e67f0147.Emscripten.clang"
  },
  "schemaVersion": "3.0.0-beta.0",
  "updatedAt": "2018-10-24T19:39:11.709Z"
}