{
  "contractName": "Fail",
  "abi": [
    {
      "payable": true,
      "stateMutability": "payable",
      "type": "fallback"
    },
    {
      "constant": true,
      "inputs": [],
      "name": "error",
      "outputs": [
        {
          "name": "",
          "type": "string"
        }
      ],
      "payable": false,
      "stateMutability": "pure",
      "type": "function",
      "signature": "0xc79f8b62"
    }
  ],
  "bytecode": "0x608060405234801561001057600080fd5b50610156806100206000396000f300608060405260043610610041576000357c0100000000000000000000000000000000000000000000000000000000900463ffffffff168063c79f8b6214610050575b6000151561004e57600080fd5b005b34801561005c57600080fd5b506100656100e0565b6040518080602001828103825283818151815260200191508051906020019080838360005b838110156100a557808201518184015260208101905061008a565b50505050905090810190601f1680156100d25780820380516001836020036101000a031916815260200191505b509250505060405180910390f35b6060600015156100ef57600080fd5b6040805190810160405280600f81526020017f497420646964206e6f74206661696c00000000000000000000000000000000008152509050905600a165627a7a7230582062da80b478e0bc2e1c111b6dbe167f743a61d12066b77aeddff303ad8d70b1b80029",
  "source": "pragma solidity ^0.4.24;\n\ncontract Fail {\n\n    function () external payable {\n        require(false);\n    }\n\n    function error() public pure returns (string){\n        require(false);\n        return 'It did not fail';\n    }\n\n}",
  "sourcePath": "/home/alejandro/workspace/rsk/rsktest/contracts/Fail.sol",
  "compiler": {
    "name": "solc",
    "version": "0.4.24+commit.e67f0147.Emscripten.clang"
  },
  "schemaVersion": "3.0.0-beta.0",
  "updatedAt": "2018-10-24T19:39:12.009Z"
}