{
  "contractName": "Feeless",
  "abi": [
    {
      "constant": true,
      "inputs": [
        {
          "name": "",
          "type": "address"
        }
      ],
      "name": "nonces",
      "outputs": [
        {
          "name": "",
          "type": "uint256"
        }
      ],
      "payable": false,
      "stateMutability": "view",
      "type": "function",
      "signature": "0x7ecebe00"
    },
    {
      "constant": false,
      "inputs": [
        {
          "name": "sender",
          "type": "address"
        },
        {
          "name": "target",
          "type": "address"
        },
        {
          "name": "data",
          "type": "bytes"
        },
        {
          "name": "nonce",
          "type": "uint256"
        },
        {
          "name": "sig",
          "type": "bytes"
        }
      ],
      "name": "performFeelessTransaction",
      "outputs": [],
      "payable": true,
      "stateMutability": "payable",
      "type": "function",
      "signature": "0x51b79495"
    }
  ],
  "bytecode": "0x608060405234801561001057600080fd5b50610665806100206000396000f30060806040526004361061004c576000357c0100000000000000000000000000000000000000000000000000000000900463ffffffff16806351b79495146100515780637ecebe001461013d575b600080fd5b61013b600480360381019080803573ffffffffffffffffffffffffffffffffffffffff169060200190929190803573ffffffffffffffffffffffffffffffffffffffff169060200190929190803590602001908201803590602001908080601f016020809104026020016040519081016040528093929190818152602001838380828437820191505050505050919291929080359060200190929190803590602001908201803590602001908080601f0160208091040260200160405190810160405280939291908181526020018383808284378201915050505050509192919290505050610194565b005b34801561014957600080fd5b5061017e600480360381019080803573ffffffffffffffffffffffffffffffffffffffff169060200190929190505050610529565b6040518082815260200191505060405180910390f35b606060008573ffffffffffffffffffffffffffffffffffffffff163073ffffffffffffffffffffffffffffffffffffffff161415156101d257600080fd5b6040805190810160405280601c81526020017f19457468657265756d205369676e6564204d6573736167653a0a333200000000815250915081868686604051808473ffffffffffffffffffffffffffffffffffffffff1673ffffffffffffffffffffffffffffffffffffffff166c0100000000000000000000000002815260140183805190602001908083835b602083101515610284578051825260208201915060208101905060208303925061025f565b6001836020036101000a038019825116818451168082178552505050505050905001828152602001935050505060405180910390206040518083805190602001908083835b6020831015156102ee57805182526020820191506020810190506020830392506102c9565b6001836020036101000a038019825116818451168082178552505050505050905001826000191660001916815260200192505050604051809103902090506103368184610541565b6000806101000a81548173ffffffffffffffffffffffffffffffffffffffff021916908373ffffffffffffffffffffffffffffffffffffffff1602179055508673ffffffffffffffffffffffffffffffffffffffff166000809054906101000a900473ffffffffffffffffffffffffffffffffffffffff1673ffffffffffffffffffffffffffffffffffffffff161415156103d057600080fd5b83600160008060009054906101000a900473ffffffffffffffffffffffffffffffffffffffff1673ffffffffffffffffffffffffffffffffffffffff1673ffffffffffffffffffffffffffffffffffffffff16815260200190815260200160002060008154809291906001019190505514151561044c57600080fd5b8573ffffffffffffffffffffffffffffffffffffffff16348660405180828051906020019080838360005b83811015610492578082015181840152602081019050610477565b50505050905090810190601f1680156104bf5780820380516001836020036101000a031916815260200191505b5091505060006040518083038185875af19250505015156104df57600080fd5b60008060006101000a81548173ffffffffffffffffffffffffffffffffffffffff021916908373ffffffffffffffffffffffffffffffffffffffff16021790555050505050505050565b60016020528060005260406000206000915090505481565b6000806000806041855114151561055b5760009350610630565b6020850151925060408501519150606085015160001a9050601b8160ff16101561058657601b810190505b601b8160ff161415801561059e5750601c8160ff1614155b156105ac5760009350610630565b600186828585604051600081526020016040526040518085600019166000191681526020018460ff1660ff1681526020018360001916600019168152602001826000191660001916815260200194505050505060206040516020810390808403906000865af1158015610623573d6000803e3d6000fd5b5050506020604051035193505b505050929150505600a165627a7a72305820e27611083be03dce13201259ca874e3f00eeaf9e72bb22a07751e332f457d5920029",
  "source": "pragma solidity ^0.4.23;\n\nimport { ECRecovery } from \"zeppelin-solidity/contracts/ECRecovery.sol\";\n\n\ncontract Feeless {\n\n    address internal msgSender;\n    mapping(address => uint256) public nonces;\n\n    modifier feeless {\n        if (msgSender == address(0)) {\n            msgSender = msg.sender;\n            _;\n            msgSender = address(0);\n        } else {\n            _;\n        }\n    }\n\n    function performFeelessTransaction(address sender, address target, bytes data, uint256 nonce, bytes sig) public payable {\n        require(this == target);\n\n        bytes memory prefix = \"\\x19Ethereum Signed Message:\\n32\";\n        bytes32 hash = keccak256(prefix, keccak256(target, data, nonce));\n        msgSender = ECRecovery.recover(hash, sig);\n        require(msgSender == sender);\n        require(nonces[msgSender]++ == nonce);\n\n        require(target.call.value(msg.value)(data));\n        msgSender = address(0);\n    }\n\n}",
  "sourcePath": "/home/alejandro/workspace/rsk/rsktest/contracts/feeless/Feeless.sol",
  "compiler": {
    "name": "solc",
    "version": "0.4.24+commit.e67f0147.Emscripten.clang"
  },
  "schemaVersion": "3.0.0-beta.0",
  "updatedAt": "2018-10-24T19:39:12.406Z"
}